{
  "contractName": "ErrorContract",
  "abi": [
    {
      "inputs": [],
      "payable": false,
      "stateMutability": "nonpayable",
      "type": "constructor"
    },
    {
      "constant": true,
      "inputs": [],
      "name": "test",
      "outputs": [
        {
          "internalType": "uint256",
          "name": "",
          "type": "uint256"
        }
      ],
      "payable": false,
      "stateMutability": "view",
      "type": "function"
    },
    {
      "constant": false,
      "inputs": [
        {
          "internalType": "uint256",
          "name": "_x",
          "type": "uint256"
        }
      ],
      "name": "loop",
      "outputs": [],
      "payable": false,
      "stateMutability": "nonpayable",
      "type": "function"
    }
  ],
  "bytecode": "0x608060405234801561001057600080fd5b506000808190555060ce806100266000396000f3fe6080604052348015600f57600080fd5b506004361060325760003560e01c80630b7d796e146037578063f8a8fd6d146062575b600080fd5b606060048036036020811015604b57600080fd5b8101908080359060200190929190505050607e565b005b60686093565b6040518082815260200191505060405180910390f35b5b60011560905780600081905550607f565b50565b6000548156fea265627a7a7231582098c6337a589af5859a22b3cda0c384ba4720dbfec8be36286431b9b105dbf43164736f6c63430005100032",
  "source": "pragma solidity ^0.5.0;\n \ncontract ErrorContract\n{ \n    uint public test;\n    \n    constructor() public\n    {\n        test = 0;\n    }\n \n    function loop(uint _x) public\n    {\n        while(true)\n        {\n            test = _x;\n        }\n    }\n}",
  "sourcePath": "/Users/fhildeb/Documents/Blockchain School/GitHub/hsmw-blockchain-school/truffle-debug/contracts/ErrorContract.sol",
  "compiler": {
    "name": "solc",
    "version": "0.5.16+commit.9c3226ce.Emscripten.clang"
  },
  "schemaVersion": "3.4.13",
  "updatedAt": "2023-04-16T11:43:09.025Z",
  "networkType": "ethereum",
  "devdoc": {
    "methods": {}
  },
  "userdoc": {
    "methods": {}
  }
}